:020000041000EA
:1000000000B5324B212058609868022188439860DF
:10001000D860186158612E4B002199600221596106
:100020000121F02299502B49196001219960352056
:1000300000F044F80222904214D00621196600F024
:1000400034F8196E01211966002018661A6600F04E
:100050002CF8196E196E196E052000F02FF8012189
:100060000842F9D1002199601B49196000215960AB
:100070001A491B48016001219960EB211966A021F2
:10008000196600F012F800219960164914480160C1
:100090000121996001BC002800D000471248134993
:1000A000086003C880F30888084703B5996A0420EC
:1000B0000142FBD001200142F8D103BD02B5186610
:1000C0001866FFF7F2FF186E186E02BD00000240BE
:1000D000000000180000070000035F00212200005C
:1000E000F4000018222000A00001001008ED00E03C
:1000F00000000000000000000000000074B24E7A12
:1001000000200420F7010010C3010010C5010010F9
:10011000C1010010C1010010C1010010C101001097
:10012000C1010010C1010010C1010010C701001081
:10013000C1010010C1010010C9010010CB01001065
:10014000CD010010CD010010CD010010CD01001037
:10015000CD010010CD010010CD010010CD01001027
:10016000CD010010CD010010CD010010CD01001017
:10017000CD010010CD010010CD010010CD01001007
:10018000CD010010CD010010CD010010CD010010F7
:10019000CD010010CD010010CD010010CD010010E7
:1001A000CD010010CD010010CD010010CD010010D7
:1001B000CD010010CD010010CD010010CD010010C7
:1001C00000BE00BE00BE00BE00BE00BE00F04BF888
:1001D000103800BEF2EB88710CC200102CC2001067
:1001E0003402001090A31AE700202149086006C8D5
:1001F00081F3088810471F48006800282FD10DA4FC
:100200000ECC002902D000F012F8F9E71A491B4A77
:10021000002000E001C19142FCD1194988471949E9
:1002200088471949884700BEFDE701C901C29A42C3
:10023000FBD370472CC20010C0000020700E0020BD
:10024000DCCF00100000042000000420DCCF0010F0
:1002500000100420001004200000000070470B482C
:1002600004F0FAFA0047EFF30580C0B270470000CF
:1002700008ED00E0000000D0700E0020B41C00204B
:10028000492900100D0300106D2A00105756000078
:1002900006005250ABB3605368BA001006005250CB
:1002A000861C030278BA0010060052505422A29D08
:1002B00084BA001005005250DE65F468DCCF0010EF
:1002C000F8B5C04610B5064C2378002B07D1054B76
:1002D000002B02D0044800E000BF0123237010BDB2
:1002E000901100200000000090B50010044B10B5E4
:1002F000002B03D00349044800E000BF10BDC046F6
:10030000000000009411002090B5001010B500F01E
:1003100033FF01F005F8FCE70122024B1A70024B93
:1003200018607047A71C00203C180020F0B54F460D
:100330004646D646174BC0B59A46174BD026994627
:10034000164B002498460127360653461D592800AF
:1003500001F032F93B00AB40280000220121B362DA
:1003600001F0D6F828004B460122042101F0E8F8FC
:1003700043461D590434280001F01EF93B00AB40F0
:100380007362B361102CE0D1E0BCBA46B146A84616
:10039000F0BDC04690B5001019030010A0B50010C4
:1003A000F0B5D6464F4646464C4AC0B51378D9B24A
:1003B000002B3BD0002313700122494B49481A708F
:1003C000494A03781468052C62D014680021042C73
:1003D00062D01468032C00D16FE01268022A69D041
:1003E000002962D1414BD0259A46414B00249946C1
:1003F000404B012798462D0653461E5900224B4676
:100400000421300001F09CF842463B0012590121C2
:100410009340AB6243460022185901F079F83B0043
:10042000B34004346B62AB61102CE5D1324B1A78C7
:10043000502A05D02E20E0BCBA46B146A846F0BDF1
:1004400000221A70264B2D481A70D02212065268CC
:10045000037892052BD51E000025D0221206526883
:10046000D20501D401250126D02109064C680122BC
:10047000240629D44B689B0913405A425341023346
:100480000370184A9B0011781D4AD318585CD2E7B4
:1004900014680023042C9CD11368032B0DD013681F
:1004A000023B5A4253415B00013303709AE7012536
:1004B0000026D2E70323037094E71368023B5A42F5
:1004C0005341023303708DE7496889090A4203D01A
:1004D000002DD6D03300D3E70323D1E7A71C00209B
:1004E000A01C0020A81C00203C18002090B5001083
:1004F00019030010A0B50010A61C0020A91C0020A4
:10050000880300200122024B01201A707047C04668
:10051000AF1C002030B585B0040001F0E1FBFA22E9
:100520000500604200239200C11705F0E3F80B00BC
:100530000A49020002910021019109492800009115
:1005400001F09CFC041E05D0064805F075FB200058
:1005500005B030BD044805F06FFBF8E778110020C6
:1005600005050010B0B50010D8B5001001231A0021
:10057000F0B5C646584D0400E96800B58A4001113F
:100580000B4200D174E0D0231B065A6101231A00EC
:10059000A9688A4061110B4200D174E0D0231B0688
:1005A0005A6101231A0069688A40A1110B4200D1E7
:1005B00074E0D0231B065A6101231A0029688A407F
:1005C000E1110B4200D174E0D0231B065A61D02602
:1005D000802336065B02B361802301279B02984685
:1005E00001200021B761736101F0B4FD4346FA2098
:1005F000B3610021400001F0ADFD3B00EA6893408B
:10060000274266D0736101231A00A9688A406110ED
:100610000B425AD0D0231B065A6101231A00696885
:100620008A40A1100B424CD0D0231B065A610123F3
:1006300019002A68E410914023423ED0D0231B06C3
:100640005961D024802324065B028025A361012305
:10065000AD02A36101206561002101F07BFDFA205C
:10066000A5610021400001F075FD80BCB846F0BDD9
:10067000D0231B069A6101231A00A9688A406111E0
:100680000B4200D08AE7D0231B069A6101231A008F
:1006900069688A40A1110B4200D08AE7D0231B066B
:1006A0009A6101231A0029688A40E1110B4200D0A7
:1006B0008AE7D0231B069A6189E7D0231B0699613C
:1006C000BFE7D0231B069A61B1E7D0231B069A61CE
:1006D000A3E7B36197E7C0469803002001231A00FF
:1006E000F0B5C646584D0400E96800B58A400111CE
:1006F0000B4200D174E0D0231B065A6101231A007B
:10070000A9688A4061110B4200D174E0D0231B0616
:100710005A6101231A0069688A40A1110B4200D175
:1007200074E0D0231B065A6101231A0029688A400D
:10073000E1110B4200D174E0D0231B065A61D02690
:10074000802336065B027361802301279B02984653
:1007500001200021B761736101F0FCFC4346FA20DF
:10076000B3610021400001F0F5FC3B00EA689340D2
:10077000274266D0736101231A00A9688A4061107C
:100780000B425AD0D0231B065A6101231A00696814
:100790008A40A1100B424CD0D0231B065A61012382
:1007A00019002A68E410914023423ED0D0231B0652
:1007B0005961D024802324065B02802563610123D4
:1007C000AD02A36101206561002101F0C3FCFA20A4
:1007D000A5610021400001F0BDFC80BCB846F0BD21
:1007E000D0231B069A6101231A00A9688A4061116F
:1007F0000B4200D08AE7D0231B069A6101231A001E
:1008000069688A40A1110B4200D08AE7D0231B06F9
:100810009A6101231A0029688A40E1110B4200D035
:100820008AE7D0231B069A6189E7D0231B069961CA
:10083000BFE7D0231B069A61B1E7D0231B069A615C
:10084000A3E7B36197E7C046980300201C23F0B5E7
:10085000C646C34E9846D0243700012500B5B044A3
:100860002406386800F0A8FE2A0008CF9A40626289
:10087000A2614745F5D10F2001F084FC2B00F268FE
:100880008027934063612B00B268BF02934063618D
:100890002B00726801209340A3612B003268002175
:1008A0009340A36180235B02A361A56167619846C1
:1008B00001F050FCFA20A7610021400001F04AFC41
:1008C0002B00F2680120934063612B00B268002185
:1008D000934063612B0072689340A3612B003268E0
:1008E0009340A3614346A361A561676101F032FCB7
:1008F000FA20A7610021400001F02CFC2B00F268D7
:100900000120934063612B00B26800219340636132
:100910002B0072689340A3612B0032689340A3615F
:100920004346A361A561676101F014FCFA20A76149
:100930000021400001F00EFC2B00F26801209340E2
:10094000A3612B00B2680021934063612B007268A1
:100950009340A3612B0032689340A3614346A36197
:10096000A561676101F0F6FBFA20A7610021400054
:1009700001F0F0FB2B00F26801209340A3612B00F3
:10098000B2680021934063612B0072689340A361B9
:100990002B0032689340A3614346A361A561676160
:1009A00001F0D8FBFA20A7610021400001F0D2FB42
:1009B0002B00F26801209340A3612B00B268002154
:1009C0009340A3612B0072689340A3612B003268AF
:1009D000934063614346A361A561676101F0BAFB7F
:1009E000FA20A7610021400001F0B4FB2B00F2685F
:1009F00001209340A3612B00B26800219340A361C2
:100A00002B0072689340A3612B0032689340A3616E
:100A10004346A361A561676101F09CFBFA20A761D1
:100A20000021400001F096FB2B00F268012093406A
:100A3000A3612B00B26800219340A3612B00726870
:100A4000934063612B003268934063614346A36126
:100A5000A561676101F07EFBFA20A76100214000DB
:100A600001F078FB2B00F26801209340A3612B007A
:100A7000B26800219340A3612B0072689340A36188
:100A80002B0032689340A3614346A361A56167616F
:100A900001F060FBFA20A7610021400001F05AFB41
:100AA0002B00F26801209340A3612B00B268002163
:100AB000934063612B007268934063612B0032683E
:100AC0009340A3614346A361A561676101F042FBC6
:100AD000FA20A7610021400001F03CFB2B00F268E6
:100AE00001209340A3612B00B26800219340A361D1
:100AF0002B0072689340A3612B0032689340A3617E
:100B00004346A361A561676101F024FBFA20A76158
:100B10000021400001F01EFB2B00F26801209340F1
:100B200063612B00B26800219340A3612B007268BF
:100B300093402A00A36133689A404346A261A361AF
:100B4000A561676101F006FBFA200021A761400062
:100B500001F000FB022001F015FB80BCB846F0BD9F
:100B600098030020F0B501252C4B46461A00984604
:100B70002B00D268D024D6464F46934042462406E6
:100B8000C0B5A3612B009268012093404246A36147
:100B90002B005268002193404246A3612B0012684B
:100BA000FA269340A36180235B02A3619A468023C7
:100BB0009B029946A561636101F0CCFA00274B4680
:100BC000760030003900A36101F0C4FA42462B00E0
:100BD000D26801209340424663612B009268002155
:100BE00093404246A3612B0052689340A361434661
:100BF0002A001B689A405346A261A3614B46A56137
:100C0000636101F0A7FA4B4630003900A36101F09F
:100C1000A1FAE0BCBA46B146A846F0BD9803002050
:100C2000F0B501252C4B46461A0098462B00D26899
:100C3000D024D6464F46934042462406C0B5A36111
:100C40002B009268012093404246A3612B0052681A
:100C5000002193404246A3612B001268FA2693407C
:100C6000A36180235B02A3619A4680239B0299467D
:100C7000A561636101F06EFA00274B4676003000F3
:100C80003900A36101F066FA42462B00D2680120C8
:100C900093404246A3612B00926800219340424654
:100CA00063612B0052689340A36143462A001B688E
:100CB0009A405346A261A3614B46A561636101F06E
:100CC00049FA4B4630003900A36101F043FAE0BC19
:100CD000BA46B146A846F0BD98030020802200B570
:100CE00083B001ABD20101391A80C9B25B5C013813
:100CF0008033C0B21818FFF739FC03B000BDC046FE
:100D000070B50500002403E0285DFFF7E7FC01341F
:100D1000280008F0D7F8A042F6D870BD10B50B49EE
:100D20000B4807F0A9FC03210E2000F0D9FB03219A
:100D30000F2000F0D5FB002201210E2000F0E8FB7F
:100D4000002201210F2000F0E3FB10BDA08601006E
:100D5000980400200B00002100B583B00200009130
:100D60000748503107F0B2FC831C04D0322001F058
:100D700009FA03B000BD034804F0B6FEF9E7C04627
:100D80009804002004B6001070B584B06A460026AE
:100D9000124D030A1373507302235021280000964A
:100DA00003AA07F093FC831C0DD00B246C44012391
:100DB000220050212800009607F0F0FC831C08D088
:100DC000207804B070BD0B24054804F08DFE6C44FF
:100DD000F6E7044804F088FEF2E7C04698040020D5
:100DE00004B6001018B60010F0B585B06B460025AB
:100DF000114F9D810C00587350210223380000953B
:100E000003AA07F063FC831C0CD00C4E23003200B5
:100E100050213800009507F0C1FC831C07D030003A
:100E200005B0F0BD064804F05FFE044EF7E7054844
:100E300004F05AFEF3E7C04698040020E8110020B1
:100E400004B6001018B60010084A9369DB060CD4EB
:100E50001021074893691942FCD113680370936904
:100E60001942F7D00122034B1A707047004003402B
:100E7000A41C0020B01C0020962110B5104C890144
:100E8000200000F059FC02210C2000F029FB022177
:100E90000D2000F025FB1023E26A14201340094ABC
:100EA0000949136001F0A2FF0121142001F07CFF29
:100EB0005023A363626B183B1340044A136010BDB8
:100EC000004003402C500340490E001034500340B2
:100ED000F8B592490B78082B05D8914A9B00D35856
:100EE0009F46432853D000230B70F8BD4E2800D1F5
:100EF000FFE053285CD02C28F7D08A4A8A4C13781C
:100F0000E0540133137007230B70EEE7572800D12C
:100F1000E1E045285ED02C28E7D0824A834C137844
:100F2000E0540133137008230B70DEE72428DCD172
:100F300001230B7000237C4A13707C4A1370D4E7A2
:100F40004728D0D102230B70CFE75028CBD1032301
:100F50000B70CAE75228C6D104230B70C5E74D2891
:100F6000C1D105230B70C0E756281CD0412811D0F1
:100F70002C28BAD06E4B1A78002AB6D02E2800D171
:100F8000C8E0684A6B4C1378E054013313700623B1
:100F90000B70AAE7072300220B70624B1A70644B98
:100FA00001321A70A1E700235E4A0B7013709CE7B0
:100FB000082300220B705B4B5B481A7007F044FC5F
:100FC00004F010F880235C4C5B422060E27813430D
:100FD000E3708AE70023554E524A300013700B70BD
:100FE00007F032FC03F0FEFF0022544F38607F23ED
:100FF000F978D2010B4050491343FB704B88CA78F3
:101000005B04D2091B0EDB05D207D2180B684C4DCE
:101010005B024C4C29885B0AD318120EA27049BAA5
:101020001A0C5BBA20002180E270A3800621FFF732
:1010300091FE7B88FA785B04D2091B0EDB05D20790
:10104000D2183B6829885B0204315B0AD31889B245
:10105000120EA27029801A0C49BA5BBA20002180B6
:10106000E270A3800621FFF775FE0022364C2B8824
:10107000217804332B800131344BC9B234481A70C3
:10108000217004F0D9FD2378324803218370FFF7E3
:1010900061FE314B1B78002B00D126E70121012096
:1010A000FFF71CFE2D48FFF72BFE01210620FFF75E
:1010B00015FE1D48FFF724FE02210120FFF70EFE5A
:1010C0002748FFF71DFE02210520FFF707FE30002D
:1010D000FFF716FE09E70023144E124A3000137082
:1010E0000B7007F0B1FB03F07DFF144F0122386055
:1010F0007DE7082300220B700A4B0B481A7007F09B
:10110000A3FB03F06FFF7F230B4C2060E2781340BA
:10111000E370EAE600221A7039E7C046AD1C0020F1
:1011200040B60010AC1C0020D4110020C0110020DB
:10113000B6030020B4110020E4110020D0110020DB
:10114000B4030020901700209D1C00209F1C00204D
:101150002CB60010AC1100209E1C002030B60010F0
:1011600038B60010FF234202DB050340520AC00FCD
:101170001343C0071843704710B504F069FDFFF72B
:10118000D5F8FFF763FBFFF7C9FDFFF775FE0120F8
:10119000FFF7C0F901210120FFF7A0FD0548FFF787
:1011A000AFFD02210120FFF799FD0348FFF7A8FDDD
:1011B00010BDC04664B6001074B60010F0B5DE462F
:1011C000454657464E46E0B5002087B0FFF7DCFDA8
:1011D000010004000590424804F02EFD414D4249B3
:1011E000280004F029FD4149280004F025FD2800CD
:1011F0003F4904F021FD002C62D0002399463D4B6D
:1012000004249A463C4B9B46E7B204213800FFF782
:10121000EBFD030000785A780006120480189A78D3
:10122000DB7812028018C01853461860FFF79AFF47
:10123000061C381D0421C0B2FFF7D6FD030000785C
:101240005A780006120480189A78DB781202801807
:10125000C01853461860FFF785FF5946804628009E
:1012600004F0EAFC2549280004F0E6FC301C04F0F8
:101270005BFA0022224B03F09EFD224B0600404603
:101280000F00029304F050FA00221D4B03F093FD6F
:101290003B003200009001911B491C4804F0CCFC3B
:1012A0001B49280004F0C8FC28001A4904F0C4FCBB
:1012B00001239C46059B0834E144A4B24B45A3DCC2
:1012C0002800154904F0B8FC2800144904F0B4FCC7
:1012D00007B0F0BCBB46B246A946A046F0BDC0462A
:1012E00080B60010ACB6001084B60010B0B6001086
:1012F000E0B60010BC110020ECB60010F8B60010EB
:10130000000059401CB7001000B7001010B70010C3
:101310002CB7001038B7001048B7001054B70010B1
:10132000F8B5FFF73DF83F4B3F4C1A7801002070AD
:10133000002A14D000221A703C4B1B78002B4AD193
:101340003B483C4A036893424ED0FA263A4D01335B
:101350002A68F600B24251D001322A600360374B4E
:101360001A78002A05D000221A70354B1B78002B02
:101370004BD12E2900D1F8BD324804F05DFCFEF7B8
:10138000D5FF2378322B4AD01BD9332B1FD0412BCA
:10139000F1D1FFF7E7FBFFF743FC01210120FFF745
:1013A0009DFC2948FFF7ACFC02210120FFF796FCC9
:1013B0002648FFF7A5FCFFF733FC0022244B1A70E8
:1013C000D9E7312BD7D10122214B1A70D3E7002264
:1013D000204B1A70CFE7204A154813780133137059
:1013E0000368144A9342B0D10122FA26144B124DDD
:1013F0001A702A680123F600B242ADD10127174EB8
:1014000032787A4032700122A7E7124B1B780A2B00
:10141000AFD8134B1878FFF75BFD2178A9E7FFF7EA
:10142000CDFEA8E7AF1C0020B8030020A01C0020C0
:101430009C17002088130000B0110020B01C002071
:101440009F1C00205CB7001064B6001074B600103A
:101450009E1C00209D1C0020A61C0020B70300201D
:10146000A41C0020D0231B06F0B51E68C646731EC0
:101470009E41734230261E40164B00249C46164B5C
:1014800007270F25984600B56644E00803003A0098
:1014900008339B009B5922409200D34029001940F9
:1014A0001D4210D00B0093401A003C300B4B8000C3
:1014B000C250D02342461B061B689B009B58002B42
:1014C00001D02000984701341E2CDED180BCB846E4
:1014D000F0BDC046004101402812002000400140FC
:1014E000094A830094464022634410B51C68C0003A
:1014F0006240C02414408022520113431C60034BFD
:101500009C466044416010BD04C001400040014061
:101510000A4B80009C4604236044002901D00C2320
:101520000821002A00D10B00026853400C221A4007
:1015300080235B01184302607047C04604C001402D
:1015400070B50600D02000060468F508601E8441CE
:101550003020644204401448844607203040800014
:1015600081402800114E3C3064448000AD00815120
:101570006419002A12D08022920114432160D022E3
:10158000120612680A49920053500D20094901F0D1
:101590002DFC01210D2001F007FC70BDC02292013D
:1015A00014432160EBE7C046004101400040014088
:1015B00028120020651400100123D0228340120657
:1015C00093629361094A83009446402263441968F8
:1015D000C0004A40C02111408022520113431960CB
:1015E000034B9C46052360444360704704C00140A0
:1015F0000040014070B5EFF3108C72B60D4D2B68B2
:10160000002BFCD0BFF35F8F0724CB08C618C05C4B
:1016100001230C40A3401C000440034207D10343B4
:101620003370BFF35F8F2C608CF3108870BD100097
:1016300001F038FA2C0100D0F8B54746CE4688466E
:1016400080B5EFF3108C72B6214D2C68002CFCD0C5
:10165000BFF35F8F9A422CD8D4080727055D06197F
:1016600001241740BC402C421FD007210127894686
:1016700009E0D408055D06194C4639001440A14024
:101680000C00294211D001329342F2D20120404293
:10169000BFF35F8F00220E4B1A608CF31088002876
:1016A0000FDBC0BCB946B046F8BD2C431000347007
:1016B000EEE7BFF35F8F00232B608CF310880120CF
:1016C00040424346002BECD0089801F0EBF9C046AD
:1016D0002C0100D0024B18688007C00F7047C0462D
:1016E00000C006400021044B044ABFF35F8F02C3D1
:1016F0009342FAD17047C046000100D0800100D06B
:10170000044A1078431CDBB2172B00D91023137046
:101710007047C046B903002000B5054B83B00100F7
:10172000009318221F230348FFF786FF03B000BD74
:1017300068B7001098170020F8B5040006200D00C7
:1017400001F02CFB002844D02A4B2B49E2185342CD
:101750005A418023DB039C469205284B62441A6061
:10176000274B1A6010008B689843FBD1214B8021D6
:10177000E3185A425341234A5B004900995206201C
:1017800001F00CFB2900C00003F0C0F8C30921D10F
:1017900040270121260080256162A36200232C36A8
:1017A000AD0135432B60062001F0F8FA39008000C6
:1017B00003F0ACF86023E26A53406E221A408023A3
:1017C0005B0133431A60104B236310232B600D3BE6
:1017D000A364F8BD0D4A934203D900230C4F0D4971
:1017E000D8E77F221040013040089F0119003F18C0
:1017F0000300CFE70080FCBF00C0004000E00040D5
:1018000000F00040881C002001030000FEFF0000E3
:10181000C0FF3F00FFFF000083680B4810B58446FF
:1018200061446244090112019A18591854684B68BE
:1018300001209C4201D802D00020C0B210BD126825
:101840000B689A42F9D8F7E7FFFFFF0F10B50800C1
:101850000B690C009847002802D02068616810BD11
:10186000E06000210020FAE70A4B1968EFF31080CE
:1018700072B60A68002AFCD0BFF35F8F1B68BFF303
:101880005F8F00221A6080F3108840BF0020002183
:101890007047C0466C1C0020F8B557464E4645467A
:1018A000DE46E0B599460CAB1C780DAB1B78060004
:1018B00090469A460768002C11D1BC7B002C42D080
:1018C00065003B682D19033D59194B78BB73002BFC
:1018D00000D1FB7300238B704B700B7004E065002C
:1018E0003B682D19033D5919B2682A4B944642466C
:1018F000E3181B0163441A604A465A600A9A9A60C8
:101900000B9ADA6000238B704B700B707B7B9B46CD
:10191000002B2BD022005946B8687B6898473A685C
:10192000002816D05B4658465B005B445519033BC4
:10193000A870D118D35C002B00D06B705B460C7084
:101940007B73A34513D0F0BCBB46B246A946A04664
:10195000F8BD5B465B005B44033BD3189C70511998
:10196000525D002A00D05A705B460B707C73424671
:101970004B46307D00F054FD051E06D05346002B2B
:1019800003D12100306800F0A1FF0E9B002BDAD0BC
:101990001D70D8E7FFFFFF0FF0B5DE464E465746F5
:1019A00045460023E0B58DB00A936B4B8200D358B7
:1019B0000B90994600239B464B46079300F0D0FCC2
:1019C000079C06000F006268EFF3108572B613687B
:1019D000002BFCD022000794BFF35F8F2468637B49
:1019E0009946002B67D092685C4B90464B441B0194
:1019F000984443461A685B6810001900801BB9417F
:101A000000295FDD0B9800F00BFD002300269846AF
:101A100000279A46079C6368BFF35F8F5A461A6097
:101A200085F310885346002B08D10028C6D10DB08D
:101A3000F0BCBB46B246A946A046F0BD0A9B414653
:101A400018024B461843D047089009916268EFF39B
:101A5000108572B61368002BFCD00794BFF35F8F1C
:101A60000899099A002A48DB114303D0079B1B6998
:101A7000002B5DD1079B1B68D97B002907D04A004A
:101A8000521819688C4649466244033A51704A46D6
:101A9000DA734B46079A013BD168CA5C0132CA54DB
:101AA0005B46079A13615368BFF35F8F5A461A600B
:101AB00085F3108882E700230026984600279A467F
:101AC0000020A7E7002901D100289BD10021200098
:101AD00000F07EFE43461E685F689B68079A9A4640
:101AE0004346DB689846D3684B44013B1B780A9316
:101AF0001B020343136100208CE72369002BB9D03C
:101B000033003C005B1A94411A002300A74219D805
:101B10009F421BD0594604910121039149460291ED
:101B200041460191514607980091FFF7B5FEB7E78E
:101B300000F016FC089A099B06000F0092197B41E1
:101B40009942E5D901225242D317E3E79642E1D9FF
:101B500001225242D317DDE7501C0020FFFFFF0F88
:101B6000F8B557464E464546DE46E0B5404D8146FF
:101B70008A466A68EFF3108872B61368002BFCD0AF
:101B8000BFF35F8F2E68B47B002C39D067003368B9
:101B90003F19033FDB195A78B273002A00D1F27360
:101BA000A968344A8C464946A21812016244116061
:101BB00051465160304991600021D160997059704F
:101BC0001970737B9B46002B35D022001900B0683A
:101BD000736898473268002820D05B4658465B00FF
:101BE0005B44D719033BB870D118D35C002B00D0ED
:101BF0007B705B460C7073735C451DD0002626E03D
:101C00006B68BFF35F8F1C6088F31088012040422F
:101C1000F0BCBB46B246A946A046F8BD5B465B0099
:101C20005B44033BD3189C70D119D25D002A00D0CD
:101C30005A705B460B7074734A465346287D00F019
:101C4000EFFB061EDAD02100286800F03FFEEB68AB
:101C50001B19013B19786B68BFF35F8F00221A6074
:101C600088F310880020002ED2D108022043CFE74D
:101C7000BC030020FFFFFF0F6918001010B5124CC5
:101C80006368002B04D00A21104800F057FC10BDF7
:101C900023000F4A1021206800F0B8FC032000F058
:101CA00053FB032000F02CFC03200A4900F072FBD8
:101CB000FFF726FD084B9C46032360442375074B22
:101CC00080006060DC60DEE7BC0300206C1C00204C
:101CD000191800109919001040000034501C002001
:101CE00000487047BC030020F0B557464E464546B5
:101CF000DE46E0B585B0019310AB1B780600039378
:101D000000239A46984600927268EFF3108972B6E3
:101D10001368002BFCD0BFF35F8F3568AC7B002CC1
:101D200049D067002B683F19033FDB195A78AA7323
:101D3000002A00D1EA73B1684F4A8C460098019995
:101D4000A21812016244106051600E9991600F99BF
:101D5000D16042469A705A701A706B7B9B46002B7A
:101D600045D022001900A8686B6898472A680028A7
:101D700030D05B4658465B005B44D719033BB870D4
:101D8000D118D35C002B00D07B705B460C706B735A
:101D90005C452DD0F3681B19013B18787368BFF3BD
:101DA0005F8F42461A6089F310885346002B2CD16E
:101DB0000002204307E07368BFF35F8F1C6089F364
:101DC00010880120404205B0F0BCBB46B246A9468F
:101DD000A046F0BD5B465B005B44033BD3189C70A0
:101DE000D119D25D002A00D05A705B460B706C731B
:101DF000307D009A019B00F013FB82460028C9D079
:101E00002100306800F062FDC4E7039B002B30D056
:101E10000E9B00200F999847030004000D000B4310
:101E200027D000290DDA0098019902000B00121B3F
:101E3000AB41994213D818D000920193039B9A4664
:101E400062E700F08DFA02000B00A4185D410094D7
:101E50000195A94203D8F1D100998A42EED9012314
:101E60005B42DC1700930194E8E700999142E3D9C3
:101E7000F5E70020A7E7C046FFFFFF0FF0B54E468D
:101E80004546DE465746E0B585B0109905008946BF
:101E90001100194300D1ECE0D8170400544026008B
:101EA00004005C4001002700361A8F4149460E9815
:101EB0000A600F9A4B604A618D60086100F050FA29
:101EC00002000B00B6185F4100960197B94200D995
:101ED000DDE000D1D7E00023A8469B461F00434623
:101EE0005A68EFF3108A72B61368002BFCD0BFF368
:101EF0005F8F43461E68B47B002C00D18BE06300EB
:101F00001B19033B1A0094460393336863445A78C1
:101F1000B273002A00D1F27341468968604A8C4648
:101F200000980199A21812016244106051605D4945
:101F300091604946D1605A469A705A701A70757B02
:101F4000002D00D185E022002900B0687368984711
:101F50003268002800D171E003996B005B195118B9
:101F6000033B8D70D018D35C002B00D089E0047047
:101F700075733E00AC4200D16CE043464246DB68DC
:101F800052681B19013B1B78BFF35F8F59461160E4
:101F90008AF31088002E0CD101261B021C434B46ED
:101FA0003000DC6005B0F0BCBB46B246A946A04696
:101FB000F0BD4846036998470700031E01D100247D
:101FC000EDE74A461468556822002A4365D0002D83
:101FD0000BDA0098019902000B00121BAB419942E9
:101FE00013D822D00092019379E700F0B9F90200EA
:101FF0000B00A4185D4100940195A94205D800D0BA
:102000006DE700998A4200D869E701235B42DC173B
:102010000093019463E75B68BFF35F8F1C608AF3F2
:102020001088012400266442B9E700999142D9D969
:1020300001235B42DC170093019450E76B005B19AE
:10204000033B0398D3189C701118125C002A15D119
:102050000D7074734346187D009A019B00F0E0F9FF
:10206000061E00D189E743462100186800F02EFCC7
:1020700083E7012600270122002317E75A700D701D
:10208000E7E74B7073E700998A4200D823E7012302
:102090005B42DC17009301941DE71E0000247EE7DD
:1020A000FFFFFF0F4D180010F0B504000D000626CD
:1020B0007642F717C64636196F4100B58F4213D8DE
:1020C00010D000F04DF932003B00121A8B41002B6A
:1020D00014DC002B37D02900200000F04BF980BC25
:1020E000B846F0BD8642ECD90026002700F038F94A
:1020F00032003B00121A8B41002BEADD3000390020
:10210000FFF72EFD0028E6DB00239846BC460F4A69
:102110000F4F7B6A9C4504D8B96A8E42DBD99C4537
:10212000D9D11168EFF3108072B60B68002BFCD088
:10213000BFF35F8F1368BFF35F8F4146196080F371
:10214000108820BFE5E7002AC5D0D7E76C1C002027
:102150000040054070B504000D0000F001F90200D8
:102160000B0020002900801859418B4205D802D06D
:10217000FFF79AFF70BD8242FAD901204042C11791
:10218000F6E7C04670B5060000F0EAF8FA2204004F
:102190000D00002330000021920003F0ABFA00197B
:1021A00069418D4205D802D0FFF77EFF70BD8442A1
:1021B000FAD901204042C117F6E7C046F8B5CE462D
:1021C000474680B506000C00FFF7CAFC00280CDC6F
:1021D0002D4B0020596A8C4203D89B6A0130B342D0
:1021E00045D3C0BCB946B046F8BD20BF274D6A688C
:1021F000EFF3108772B61368002BFCD0BFF35F8F2C
:102200002B68C1B29C465B7B8B4235D0FF230340D9
:102210005A00914662461268994490464A464244A2
:10222000033A9278002A1DD0EA68000A9046434497
:10223000013B1B78C0B2834221D06B68BFF35F8F34
:1022400000221A6087F310880F4A0020536A9C42CC
:10225000C7D8926A0130B242C3D2E01A421E9041FE
:10226000C0B2BEE72B699842E7D12A61E5E7601A60
:10227000431E9841C0B2B4E7FF230340D4E7604651
:1022800000F024FBD9E7C04600400540BC03002015
:10229000F0B5D6464F464646C0B5EFF305833F221C
:1022A000134018001038EFF3108C72B6204D2A68D6
:1022B000002AFCD0BFF35F8F0122110081401D4C2A
:1022C000884661631C4917000E788A463100C14078
:1022D0000F400A4209D1BFF35F8F2F608CF3108843
:1022E000E0BCBA46B146A846F0BD14498200646A13
:1022F00051588C420FD3124BD25843469E435346FB
:102300001E70BFF35F8F00232B608CF31088002AB0
:10231000E6D09047E4E70B4A9B00904643441A6896
:102320001A60BFF35F8F00232B608CF31088D7E710
:10233000280100D000400540AE1C0020781C002081
:1023400080160020D03F054010B50100024A034826
:10235000FFF750F910BDC04684B70010A51C00203F
:10236000034B596A0A00986A596A8A42FAD170473F
:1023700000400540064A536A9942FCD807D1044BF5
:1023800002E05A6A914202D19A6A8242F9D37047B6
:102390000040054070B504000D00EFF3108672B6E2
:1023A0001A4A1368002BFCD0BFF35F8F002D1BD09F
:1023B000200000F013FD164981420AD0200000F0F1
:1023C00015FD0121200000F0EFFC0123A340114A7C
:1023D0001360114BA400E550BFF35F8F00220B4B3D
:1023E0001A6086F3108870BD0B4BA200D5500122F5
:1023F000A2400A4920000B7893430B70044900F077
:102400001FFD0021200000F0CFFCE5E7280100D0EF
:10241000912200103860054080160020AE1C00207C
:10242000F0B54F46D6464646C0B507002F4C616A08
:102430000D00A66A616AA942FAD18B4208D805D07C
:102440000120E0BCBA46B146A846F0BDB242F7D979
:10245000EFF3108A72B6264801680029FCD0BFF35A
:102460005F8F0125BD402349204C88460978894665
:102470002943C9B28C46414660460870391D1E4842
:10248000890065630A51B9000B50216A0020294276
:1024900019D0616A0800A66A616A8142FAD18B424A
:1024A00019D801D1B24216D8CC451DD00F4B1F20F0
:1024B0001D625D6301230740BB40104A1E38136054
:1024C00043464A461A70BFF35F8F0022084B1A60DA
:1024D0008AF31088B5E70020BFF35F8F0022044B1A
:1024E0001A608AF31088ACE70120ECE70040054051
:1024F000280100D0AE1C0020781C002080E200E003
:10250000EFF3108C72B60A490B68002BFCD0BFF3B6
:102510005F8F01238340074A0748136202789A437A
:102520000270BFF35F8F00230B608CF3108870473D
:10253000280100D000400540AE1C0020024B9C4604
:1025400061448900016070474000003410B5040008
:10255000FFF7D6F801002000FFF7F0FFFF232371FB
:10256000BFF35F8F10BDC04610B50400FFF7C8F879
:1025700001002000FFF7E2FFFF23A380BFF35F8F7E
:1025800010BDC04610B504000120FFF7C5F8044B8C
:102590009C46604480002060BFF35F8F10BDC04642
:1025A0004000003470B5050014001600002915D055
:1025B0000C00002A12D080686B68984729680028B0
:1025C0000ED073009B196200033B1219CB18033A1B
:1025D0009C7088188A5C002A15D10670200070BD96
:1025E00063001B197200033B9219CB18033A9E70CB
:1025F00088188A5C002A02D104703400EEE75A7011
:1026000004703400EAE75A700670E7E730B583607B
:102610000023CCB243730133047342608373C473E9
:102620000D000068012C06D9421C0133DBB2137087
:1026300003329C42F9D1FF2129404B005918002355
:1026400040180338437030BDF8B5CE464746060003
:102650000C0080B5002907D04D0003686D18033DBC
:102660005A195778002F04D12000C0BCB946B04693
:10267000F8BD7900C9190339884643445978894619
:1026800000215970517073683A00210080689847A2
:102690003368002814D042469A18947059195B5D2B
:1026A000002B00D053700F70270049463000FFF711
:1026B000CBFF390002003000FFF774FF0400D3E7BE
:1026C000424641465D19AF709A185B5C002B00D002
:1026D0006B701470E9E7C046F0B557464546DE46D4
:1026E0004E46E0B50D006B0001685B19DF1E04006B
:1026F000C85D83B00192CA1900284CD043001B1852
:10270000033BCB185E78B446002E16D1019E002EF6
:102710003ED0E67B002E04D073009B19CB18033B00
:102720005D70E57300282FD10023537003B0F0BC17
:10273000BB46B246A946A046F0BD72006244033AC9
:1027400089184A78904600224A7091465A700100D2
:1027500032002000FFF726FF43468246002B07D0B9
:102760005B0021684344033BCB185A78002A16D1FA
:10277000424651462000FFF715FF2168019BCA1908
:10278000002BC6D10028CFD043001B18033BCB1829
:1027900000219970C8E7019B002BBAD1C4E7500013
:1027A000801803380918487883464846487058709E
:1027B00041462000FFF7F6FE594680462000FFF70D
:1027C00043FF414602002000FFF7ECFE8046CFE7C2
:1027D000F0B557464546DE464E46E0B583B001911A
:1027E000457B04006B0000685B19DF1EC15DC219E8
:1027F00000294ED04B005B18033BC3185E78B446EB
:10280000002E18D1019E002E40D0E67B002E04D071
:1028100073009B19C318033B5D70E573002931D128
:10282000002328005370617303B0F0BCBB46B2466E
:10283000A946A046F0BD72006244033A801842786F
:1028400090460022427091465A7020003200FFF7F5
:10285000A9FE43468246002B07D05B002168434413
:10286000033BCB185A78002A17D142465146200024
:10287000FFF798FE019B01002068C219002BC4D10C
:102880000029CDD04B005B18033BC3180020987083
:10289000C6E7019B002BB8D1C2E75000801803386F
:1028A00009184878834648464870587041462000C9
:1028B000FFF778FE594680462000FFF7C5FE4146E7
:1028C00002002000FFF76EFE8046CEE770B50400E0
:1028D00000292CD0437B8B422ED00568480040183D
:1028E000033828188278002A21D053009B18033B14
:1028F000EA5CEE188A4202D11BE0002A08D053009D
:102900009B18033BEB185A788A42F6D142785A70EA
:1029100000230122837043702000FFF7DDFE617BFE
:1029200002002000FFF73EFE6073012000E000205F
:1029300070BD43783370EBE701221900FFF7CCFE3E
:1029400060730120F4E7C0462C4B2D4A70B51A6025
:102950002C4A2D4B2D491A6014008B689C43FBD1E7
:102960002B4D2C4EB54208D2013E761BB60808CD41
:10297000984723000134B342F9D100F0B1F8264A58
:10298000214B1A60214A9368DB43DB01DD09002BF0
:10299000F9D14022214B224C224E9A675A671A677E
:1029A000DA66B44208D223682000002B20D0083415
:1029B000FFF7DAFDB442F6D31B4E1C4CC022A168CF
:1029C000300002F029FFA660FEF78CFE00F06CFBE1
:1029D000FFF754F9164C174EB44208D2013E361B8D
:1029E000B60808CC98472B0001359E42F9D170BD3E
:1029F0000834FFF7ABFDB442D5D3DDE700E000407B
:102A0000BFCDFBFEFE7F3C0000F0004000C0004058
:102A1000580E0020680E0020FFFFFF0100F001406B
:102A2000500E0020580E00200000002000ED00E0B5
:102A3000680E0020700E0020094A0300106800286C
:102A400005D00849C3188B4207D813607047064861
:102A50000449C31810608B42F7D901204042F5E7C2
:102A60004018002000000420B41C002000BEFDE738
:102A700010B50C0082B01900002A09D0064B019253
:102A8000009302002300054801F0A6FE00BEFDE70A
:102A9000034B1A00F3E7C046A8B70010B8B7001000
:102AA000B4B700100FB400B5084883B003F01CF8A9
:102AB000049B002B07D005A91800019101F0ACFE82
:102AC000034803F011F800BEFDE7C046E8B7001068
:102AD00064B7001010B50148FFF7E4FFF8B7001025
:102AE00030B50C2083B000F045FBFEF7F3FD002865
:102AF0000ED0944B944A1A605A609A60DA601A6158
:102B00005A619A61DA611A62904A5A6203B030BD22
:102B10008F4CA06700F082FB01228E4B1A60636C21
:102B2000012BFCD103228C4B1A60894A936B012B39
:102B3000FCD102240121894A89480533009400F020
:102B4000C5FA0523874A01218748009400F0BEFAA0
:102B5000864B5A68FF2A02D8802252005A6080228F
:102B6000784C7D4B21691201804D1A60002905D0F7
:102B7000606901F0CBFE01300138FDD1E0217B4BD3
:102B800002201A681140802252012A4311601968FC
:102B9000484003210140116004219A681142FCD091
:102BA0008022802192012A43090111608022520073
:102BB0005A606F4B23616F4B5968FF2900D85A60E8
:102BC0000321644A6B4B116002399A681142FCD0B0
:102BD000E0201A681040802252011A4310601868E1
:102BE0004840032101400220116062498A68104276
:102BF000FCD0802292011343802212011A608022AD
:102C00005D4B52004A6063615C4B5968FF2900D8F4
:102C10005A6080225A4BE1691201584D1A6000290E
:102C200005D0606901F072FE01300138FDD1E0226B
:102C300052490B681A4080235B012B431A608023A2
:102C400080229B012B4312011A6080223E4B5200CE
:102C50004A60E3614B4B5968FF2900D85A608022D3
:102C6000494B216A1201474D1A60002905D060695D
:102C700001F04CFE01300138FDD1E02241490B68E2
:102C80001A4080235B012B431A60802380229B0122
:102C90002B4312011A60802380225B004B602A4B79
:102CA000D2022362394B5968914200D25A60802285
:102CB000374B616A1201354D1A60002905D06069F1
:102CC00001F024FE01300138FDD1E0222F490B68CC
:102CD0001A4080235B012B431A60802380229B01D2
:102CE0002B4312011A608023DB024B60174B636297
:102CF000284B5A68FF2A02D8802252005A6080224C
:102D0000254BA1691201234D1A60002905D0606985
:102D100001F0FCFD01300138FDD1E0221D490B68B6
:102D20001A4080235B012B431A60802380229B0181
:102D30002B4312011A6080235B004B600E4BA36192
:102D4000E4E6C046A0170020006CDC021BB70000C0
:102D5000008000403CB0004030B00040002F685977
:102D60000080024000389C1C00C0024030800040BF
:102D7000001BB7003C80004040597307548000405E
:102D800054B000406080004060B000406C80004063
:102D90006CB000404880004048B00040014B8000CB
:102DA000C0587047A017002001238340002904D099
:102DB000034A1360034A13607047034A1360FBE73A
:102DC00080E200E000E100E080E100E001238340D8
:102DD000014A13607047C04600E200E0024B103029
:102DE0009B688000C058704700ED00E070B50D0092
:102DF000EFF3108672B60F4A1368002BFCD0BFF3B6
:102E00005F8F0D4B10309B6884001B590B4A934217
:102E100003D09D4201D0FFF75DFE074B9B681D511B
:102E2000BFF35F8FBFF35F8F0022024B1A6086F300
:102E3000108870BD240100D000ED00E0CD0100102D
:102E4000F0B5DE4657464E464546E0B50C0083B029
:102E5000EFF3108A72B65A4A1368002BFCD0BFF306
:102E60005F8F1022914681444A46564B96009B68DC
:102E70009D59554B98469D4205D0A54216D0534FBB
:102E8000EB1B2F2B14D94F4B9B689D51BFF35F8FCA
:102E9000BFF35F8F00224A4B1A608AF3108803B099
:102EA000F0BCBB46B246A946A046F0BD1D00EAE70D
:102EB000012383409B465A46454B1B681A400092AB
:102EC0005A46444B1A60BFF35F8FFDF7CCF901906F
:102ED000002803D0814501D0FFF7FCFD01232A0023
:102EE0009A4313003C49DB1B5B415943090D93682E
:102EF0009C4208D15AE043001B189B00FB189868BD
:102F0000A04211D01A00062010560028F3DA009BC8
:102F1000002B05D05A46314B1A602D4B1A60B2E790
:102F20005A462C4B1A60AEE706201856002821DBC3
:102F30004200111889007C188846A1689960E179DF
:102F4000D97106216156997100291FDBA488F91AED
:102F50006405241544440919E0240905490D240297
:102F60002143998012181E4B9200BF181A781870CE
:102F7000BA71CCE7019800280BD1FF309071194845
:102F80009080174A107811709871C0E7BD2109022E
:102F9000E7E7154A1549D21A083A5002400D014395
:102FA0009980134952080A43DA80B0E70620105688
:102FB00013000028BCDA019A002AEAD14546E0E76E
:102FC000240100D000ED00E0CD010010E40300205A
:102FD00000E100E080E100E0AAAA000080E200E059
:102FE000AA1C002000BDFFFF1E04002000F0FFFF10
:102FF00000F8FFFFF8B5012504000543FDF733F99C
:10300000EFF3108C72B6214A1368002BFCD0BFF38B
:103010005F8F1F4E2100B7681E4A1F4B891A494116
:103020004B431B0D59B28300F858A8421CD006230D
:10303000D3568B421CD01223D3568B4222D01E2350
:10304000D3568B4220D02A23D35603208B4210D054
:10305000124B1A781970A271BFF35F8F00220B4BCD
:103060001A608CF31088F8BDB2680D48D050EFE7B5
:10307000002043001B189B00D218FF239371094BBB
:103080009380E5E70120F4E70220F2E7240100D075
:1030900000ED00E0E4030020AAAA0000AA1C002022
:1030A000CD01001000BDFFFF054B064A1360064A24
:1030B000136053609360D3601361536193617047F1
:1030C0008080808000E400E004E400E0F0B5C646C3
:1030D000040000B50C2090461F000E0001F016FC05
:1030E0004101091A8D01691AC90009188901404670
:1030F00001F00CFC069B3F041A0323681743002BC6
:1031000022DB184B184DE21853425A4180235B01D1
:103110009C461203154B62441A60154B1A6011004D
:10312000AB689943FBD1C022231D92011A4321238E
:103130002660A06013602368002BFCDA0823E76098
:10314000136080BCB846F0BD3F2322681340B342F1
:10315000D7D1A3681B051B0D8342D2D1E368002F92
:10316000CFD1EEE70040FDBF00C0004000E00040CE
:1031700000F000408023024A9B000343D362704763
:103180000080054010B5140080221B4BD2051A6048
:1031900000281AD00123194A1843194BDA61194A39
:1031A00042401A62596298628022134BD2051A601B
:1031B0001549164A1160E022D2041A60002C07D18A
:1031C0008022134B12061A6010BD0D4BD861EBE73D
:1031D00063011B1B9A008023121912015B049A429F
:1031E00000D30C4A0C4B1A60054B5A608022084BE6
:1031F000D2051A60E8E7C04600B00540D3C007B06A
:10320000008005402D3FF84FFCFF010008200140E1
:1032100000A00540FFFFFF00481C0020AA23064A2B
:103220001B0113602F230549D360054B19605368B8
:10323000002BFCDA7047C0460040024000B0FA00A4
:10324000006002407047C046F8B557464E464546B6
:10325000DE46E0B599460A9B07009A460D9B8846D4
:10326000934615000B9E9B0710D10C9B9E420DD2DE
:103270009D1B14000E005D4422004B4601343100BA
:103280002020B847A542F7D1B0460B9E002E27D08C
:10329000444675195346AA1B013E985D21004B46D2
:1032A000B847002EF6D123002C0098460D9B9B07B3
:1032B0000FD55B46E51A0C9BAB420AD946469846A9
:1032C00022004B46310020200135B8470134A84583
:1032D000F6D82000F0BCBB46B246A946A046F8BDD1
:1032E0002C00E3E7F0B54F464646D646C0B584B05D
:1032F00098460EAB1B78129F994694460D9C109BE6
:10330000119EBA0725D4002E4BD19C4200D3BFE0BA
:1033100001223A4092461F2C00D9B8E00C9A551E63
:10332000302201E0202C03D001342A55A342F9D8E1
:103330005246002A0DD0A6420BD9202C44D00C9A1C
:10334000551E302201E0202C3ED001342A55B442D3
:10335000F9D1FA064DD57A053FD4002C39D10F9B0F
:10336000102B00D179E00F9B022B00D18AE0302393
:103370000C9A012413704B46002B3FD02D230C9A3E
:10338000135501340C9B6246009303974346029603
:103390000194FFF759FF04B0E0BCBA46B146A84615
:1033A000F0BD012215003D40AA463A422FD04A46C0
:1033B000002A02D10C323A4200D0013E9C42BAD2DD
:1033C0001F2CABD9202E27D92024FA06DAD57A056E
:1033D00003D4A3422DD0A6422BD00F9B102B32D06A
:1033E000022B20D0202CCDD030220C9B1B191A7020
:1033F0000134202CC6D04B46002BBFD17B070DD407
:103400003B07BFD520230C9A13550134BAE79C42E1
:103410009FD21F2C00D881E720249AE72B230C9AF7
:1034200013550134AEE7202CACD00C9B1B19013492
:103430003AE0631E012C92D00F9A102A2AD0022A59
:103440002FD01C00D0E7BB060ED4202C9AD00C9BAA
:103450001A19013478231370C4E7BB060DD47823FE
:103460000C9A01241370BFE7202C00D18AE7582260
:103470000C9B1B191A700134B4E758230C9A0124D1
:103480001370B1E70C9A603301241370ACE7202469
:1034900000265EE7023CBA06E9D40C9A12191C0019
:1034A000D8E70C9A9246534462221A709AE7C046B3
:1034B00010B5002800D110BD02F0C6FAFBE7C046E7
:1034C0000B0010B5002802D049681B68984710BD52
:1034D000F0B5DE4657464E464546E0B59BB09B46A6
:1034E000249B89469846259B0B900C924046424669
:1034F00019009A4601F0E3FC002800D0D8E0012230
:1035000040465146774B524201F0D4FC002800D08F
:10351000CEE0012240465146734B524201F0B4FCCA
:10352000002800D0C4E0002200234046514601F0AC
:10353000ABFC002800D0B9E1424653460A920993F9
:103540008023289ADB001A400E92289A1A4201D151
:10355000062326930A9A099B1600134300D0C7E05E
:10356000289B002500261B0500D49BE100230D931A
:10357000269A0D9B9A4200DC9FE1D01A431E2693A7
:103580008023289ADB001A430023002728920D93FA
:10359000279B0024BB4200D9DC1B0223289A1A4037
:1035A0000E92289A134203D07B427B415B421C401F
:1035B0000D9B002B07D00A9809992A00330001F0CF
:1035C000FAFB0A900991002200234046514601F07F
:1035D0005BFC002805D080200006844609996144E0
:1035E0000991289A414B0B9D13400493269B0A9AFC
:1035F0000293099B03940092019349465B4628007D
:103600000C9A00F08BF90400002F62D0289B220056
:1036100098061F23C0179843631C984649465B468B
:103620006530A8470D9B0025DA179C18DB0F9A46DA
:103630005440013F01E0202D13D00AAA94461F23D5
:10364000200063440A2101355E1901F05FF9303131
:10365000317020000A2101F059F926000400092EDA
:10366000E9D805230693002304930A3303935346B2
:1036700005970B9F029312AB009342465B46494667
:1036800038000195FFF72EFE0E9B0400002B20D082
:103690000C9BC51A279BAB421BD91E0022005B4620
:1036A000494620200135B8470134AE42F6D810E033
:1036B000289B42460493279B49460393269B0B98DD
:1036C00002935346009201935B460C9A00F026F950
:1036D000040020001BB0F0BCBB46B246A946A04681
:1036E000F0BDC046FFFFEF7FFFFFEFFFFFF7FFFFDB
:1036F000734B099F9C467800400D604401F0F2FB3B
:10370000704A714B01F075FB704A714B01F04AFB36
:103710003B03704A1B0B1A4304000D0030001100DC
:103720006D4B002201F035FB6C4A6D4B01F061FBE3
:1037300002000B002000290001F034FB01F0EAFB3D
:103740000D9001F0CFFB674A674B04000D0001F0BC
:1037500050FB0022654B01F025FB01F0DBFB644AC6
:103760000600644B2000290001F043FB04003000F8
:103770000D000F9601F0B6FB5F4A604B01F039FB7C
:1037800002000B002000290001F003FB02000B00E7
:1037900006000F0001F02DFB320004000D003B007D
:1037A0003000390001F0FEFA002210901191544BC4
:1037B0002000290001F0FFFA0022524B01F0F2FA3A
:1037C00002000B002000290001F0F5FA00224E4B08
:1037D00001F0E8FA02000B002000290001F0EBFAEA
:1037E0000D008021040032003B000020C90501F0DB
:1037F000D0FA02000B002000290001F0D3FA0200E9
:103800000B001098119901F0D6FA0022314B01F00B
:10381000C9FA3E4B0F9C9C4664440022230501F0EC
:10382000E8FA05000E0002000B000A98099901F061
:103830002BFB00280AD00D9B2800013B31000D9383
:103840000022304B01F0B7FA05000E00C6270D9993
:103850002B0063318F42BF4128997F42043709050D
:1038600000D495E6334300D182E6099C284A210022
:10387000284B0A9801F016FB002808D000222100EE
:10388000254B0A9801F000FB002800D070E6269B2B
:10389000002B00D17CE60E9B5A1E9341269AD31A28
:1038A000269375E6002304270D9371E643460A9399
:1038B00080231B065344099342E6002326935FE6C8
:1038C00001FCFFFFFB799F501344D33FB3C8608BCB
:1038D000288AC63F0000F03F0000F83F61436F6355
:1038E000A787D23F71A379094F930A400000E03FB8
:1038F0001655B5BBB16B0240EF39FAFE422EE63FDA
:1039000000002C400000244000001840FF0300008D
:103910002D431CEBE2361A3F80842E41F0B54E4613
:10392000DE4657464546E0B597B09946209E219F12
:10393000229B8346984607910C923B003200300050
:10394000390001F0BCFA002800D0A9E101223000C2
:103950003900CA4B524201F097FA002800D0E1E04A
:10396000012230003900C64B524201F0A3FA002870
:1039700000D0B7E0002230003900C24B01F09AFAC3
:10398000002800D099E0002230003900BE4B01F041
:103990007BFA002800D090E000220023300039009C
:1039A00001F072FA002800D0B1E000230D93249BAF
:1039B0005B0501D40623984608AB9C4617220024D9
:1039C00030234146624404E0013413550139202C70
:1039D00001D00929F8D888463000390001F09AFA58
:1039E0004346DA00A94B05009B181A685B680892E9
:1039F000099301F077FA02000B003000390001F062
:103A0000C8F9089A099B01F0F4F90A900B9101F0AA
:103A1000A5FA824601F062FA02000B000A980B999F
:103A200001F0B7F900229A4B0A900B9101F042FA8B
:103A3000002800D1C0E001239C46E244504601F03A
:103A40004DFA02000B000898099901F023FA0028AA
:103A500002D000239A4601354346002B6AD008ABBA
:103A600017269C4608956644554614E001235B42A0
:103A700043440A2128009A4600F048FF01343031BF
:103A80003719397028000A2100F040FF092D00D8AD
:103A9000D0E0D0460500202CE8D10EAB9846032399
:103AA000249A1340012B00D196E02023249A0193FD
:103AB0000392239A434602921EE0249B58460493A5
:103AC000239B00960197039343460C9A0293079910
:103AD0004B46FFF7FDFC17B0F0BCBB46B246A9460B
:103AE000A046F0BD249B5B070ED40322694B2499AA
:103AF0000192039123990291009358464B460C9AE8
:103B00000799FFF7A1FBE6E70422634BEFE73B00D1
:103B100032000020002101F03CF9012306000F00D3
:103B20000D9344E7249B0393239B02930423019367
:103B30005A4BE1E7280001F0D5F902000B003000F4
:103B4000390001F026F9524B002206000F0001F067
:103B50009BF90EAB984600280AD1002230003900AC
:103B60004B4B01F0A7F9002802D1EB0700D5013536
:103B7000202C94D008AA94461723280063440A21D5
:103B800001341E1900F09AFE3031280031700A21EC
:103B900000F094FE051EEBD10323249A1340012B61
:103BA0001BD0202C00D180E70D9B002B35D02D227F
:103BB0004146631C0A5579E700220A980B99344B59
:103BC00001F062F9002800D046E75346002B51D19E
:103BD00001239C46E2443FE72024239B002BE0D0B6
:103BE0000D9B002B03D1249A0C33134202D0239B4C
:103BF000013B2393239BA342D3D908AB9C461722B6
:103C000030236244202C00D14FE72399013413550F
:103C10008C42C6D0202CF8D147E7249B5B0724D4E4
:103C2000249A2300120700D440E7202241460133A2
:103C30000A553BE75746089D202C00D12DE722006E
:103C400030214046002F09D00132B154202A00D142
:103C500023E7D3431B191B18002BF5D10EAB984655
:103C60002E234146541C8B5482E72B224146631C71
:103C70000A551BE7DB0700D4EEE6A9E7FFFFEFFFDD
:103C8000FFFFEF7F65CDCD4165CDCDC100BA0010FE
:103C90000000E03F04B8001008B8001014B800108D
:103CA000249B0393239B029303230193004B23E75D
:103CB00010B80010F0B5DE464E4657464546E0B512
:103CC0009FB01C00289B91460993C94AC94B8B465B
:103CD00008901A60002900D118E2002320789A4643
:103CE000002800D11AE226001D005C460AE02A00E6
:103CF0006F1C4B46089D2100A8473D0001363078D7
:103D0000002870D02528F2D110239B46083B9A4604
:103D1000043B9846023B00219C46721C107816001A
:103D20000300203BDBB2102B03D8B34F9B00FB58A2
:103D30009F460300303B092B32D900230A932A28DF
:103D400068D0002398462E283ED00300683BDBB2A3
:103D5000122B1CD8A94A9B00D3589F46012301323D
:103D60001943DBE7634601321943D7E74346013283
:103D70001943D3E75B4601321943CFE7534601327B
:103D80001943CBE780235B007078194301360300A9
:103D9000253BDBB2532BAAD8994A9B00D3589F46A8
:103DA00000270300B800C01901364000C01833785E
:103DB00030381A00303A0700092AF3D90A9018005F
:103DC000002398462E28C0D180237078DB00194349
:103DD0000300303B721C092B00D8A1E12A2800D136
:103DE000B2E11600B1E7A346AA462C00D14503D89C
:103DF00001235B424B449A464B46524659460020AB
:103E0000089DA84720001FB0F0BCBB46B246A9469B
:103E1000A046F0BD099B40CB0A96002E03DB5078EC
:103E20000993561C8DE72838014370420A90099384
:103E30005078561C85E7782800D1DFE1582800D15A
:103E40004CE26F2800D14FE3622801D100F030FC32
:103E500010230A009A430B92692801D000F0A9FCB4
:103E60000A230C934B0500D5D0E10B9A8023110057
:103E70009B0019408B461A4200D0A1E2802311001A
:103E80005B0019408A461A4200D0B6E313005B0675
:103E900000D5EDE2130009991B0601D400F076FC71
:103EA00008C91BB2D8171A18424092B2099193461A
:103EB000DA0F1292002B09D1802310220B99DB001C
:103EC0000B4091430B91002B00D0E4E20B9A61234D
:103ED000920600D541230EA91F228C46DBB2624414
:103EE0000A3B5F461395A34655460C9CB2460D937C
:103EF00016000AE03033DBB201357355A74200D219
:103F0000EDE2202D00D1EAE207002100380000F0A8
:103F1000FDFCCBB20929EDD90D9A94466344DBB27E
:103F2000EAE780239B007078194301362FE7707809
:103F3000682800D1CDE180230136194327E7707846
:103F40006C2800D1BFE180235B00194301361EE7D6
:103F5000462800D19BE10722099B04910733934334
:103F60000A9A19000392424602920CC908980092DC
:103F7000019309912A004B462100FFF7CFFC01363F
:103F80000500BCE62A006F1C4B46089D2100252039
:103F9000A84701363D00B2E68B0700D4ADE1099B8E
:103FA0002A009A466B1C9846534601CB21009A463C
:103FB000089F4B46C0B2B8470A9B9C466544012BFC
:103FC00000D886E2089B4746B04626004C469946F4
:103FD0003A002300013731002020C847AF42F7D113
:103FE000A1465346340046460993013687E6C0464B
:103FF000B53C0010441C00201CB8001060B8001034
:10400000ACB80010099B04CB9B4643460992002B99
:1040100000D1C6E013789C46002B00D1BDE3434697
:10402000013B099A0133D0180A9F130001E0834233
:1040300003D05A780133002AF9D1099A0A979B1ABA
:104040000B9380230A00DB001A400C92194204D023
:104050000B9B434501D943460B9302231A000A40A8
:104060000D920B4200D187E16046002800D168E143
:104070000C9B002B00D10DE1A844C246099B57467A
:104080005B1B9846089BB2462A0026004C46994680
:1040900009E023003100551CC8474346585D0028FD
:1040A00000D126E12A009742F3D1A1463D00340019
:1040B00056460D9B002B00D043E15B460136099329
:1040C0001DE6099B1A0008CA9246002B48D02122FF
:1040D00011438B460EA884461F2161440995002296
:1040E0000F27A4460D0002E0202A0CD00B003C0054
:1040F0001C4020003730092C00D807380132A85462
:1041000019090F2BF0D86446099D32E0DC4B20786A
:10411000089300239A46002800D0E4E5002465E6D1
:10412000434606000A9F9800C018013240008019DB
:104130001678030030003038303B0928F3D93000BE
:10414000984616000A9700E6099B023604CB904673
:10415000D2434046D2171040804609933078F4E5A8
:104160001022080090431132104383460022490573
:10417000B0D55B460693082305934346049310236A
:1041800003930023029316AB019200932A004B463F
:1041900021000898FFF7A6F8534605000136099359
:1041A000ADE513789C46002B00D1F7E202235B4279
:1041B00037E7202302009A43472A04D180231B01BA
:1041C000194302239843452801D12023194307228C
:1041D000099B0491073393430A9A190003924246BC
:1041E00002920CC908980092019309912A004B464B
:1041F0002100FFF76DF90136050080E510230C93CF
:104200000C230A009A430B924B0503D501230B9A0A
:104210009A430B92692800D127E6642800D124E64E
:104220000B9A802311009B0019408B461A4200D044
:1042300066E1802311005B0019408A461A4200D0D3
:1042400039E213005B0600D53CE113001B0600D4E5
:10425000A6E2099B04CB1204120C934609935B4619
:10426000002B00D09AE10B9A1033110099430B9167
:10427000520500D492E100239A460B9B06930A9BB9
:104280000593434604930C9B039300230CE12023E6
:10429000194360E6099B0A9A5B1B98464B46914678
:1042A0001F00B2462600089C2A003B003100A047B0
:1042B00043460135585D0028F6D14A463400B946D8
:1042C00056460A92F5E6C0239B00B07819430236A1
:1042D0005DE5C023B0781943023658E50C230A0087
:1042E0009A4314331A43103B0B920C934B058DD415
:1042F00096E7A14634005646DBE60A9A012A00D822
:1043000053E26B1E9F18089BB04626004C46994608
:104310002A002300013531002020C847BD42F7D1D3
:10432000A14634004646099B3A0001CB210098463D
:104330007D1C4B46089FC0B2B847434601360993DF
:10434000DDE40B9B0A9AA8469A4200D8B5E694464B
:104350006544ED1A089B4746B04626004C469946F0
:104360003A002300013731002020C847AF42F7D17F
:10437000A14634004646A0E60B9A0A99531C914286
:1043800000D814E24B199B1A1F00089BB246260066
:104390004C4699462A002300013531002020C847A9
:1043A000BD42F7D10A9BA14601330B93099B340010
:1043B0001B7856469C466046002800D058E67CE6AE
:1043C0000722099B07339343013294469C4462467B
:1043D0005F6809921A68FB1710931193109811994E
:1043E000030053400E930B007B400F9394460E9AAC
:1043F0000F9B121A8B410E920F93FB0F6246129382
:1044000000233A439B463DD00B9A6123920600D588
:1044100041230022DBB20EA90A3B8C4692460D9343
:1044200043461F3262441395159655460E9E0F9FC4
:10443000A24690460C9C14930CE03032D2B2434614
:1044400001355A55BB4500D18AE1202D00D18AE1C2
:1044500006000F00220000233000390000F098FA17
:10446000D2B2092AE9D90D9B9C466244D2B2E6E752
:10447000FF23099904C913401A00099117E5C046A2
:10448000453200100B9A1033110099430B915205DD
:10449000BAD500239A460B9B06930A9B0593434685
:1044A00004930C9B0393129B02935346019316AB08
:1044B0002A00009321004B460898FEF713FF0136AF
:1044C00005001CE4FF22099B02CB11408B46099397
:1044D000C5E65346454609930136FFF710FC56469C
:1044E0005C46AA46139DD6E708230C930B910B99C3
:1044F000642800D084E60B9B5B0500D586E6B4E417
:104500000722099B07339343013294469C44624639
:1045100009921A685B6810009B4613005A461343C1
:1045200007D10B9A1033110099430B91520500D516
:10453000A1E60B9A6123920600D541230022DBB24B
:104540000EA90A3B8C4692460D9343461F326244A5
:104550005F461295A34655460400B24690460C9E0F
:1045600013930DE03032D2B2434601355A55002341
:10457000BB4200D100E1202D00D100E104000F007A
:10458000320000232000390000F002FAD2B2092ADA
:10459000E8D90D9B9C466244D2B2E5E70B9A6123B1
:1045A000920600D54123DBB20EA90A3B1F228C469E
:1045B0000D93230062445C461295170055469B46B6
:1045C000B2460C9E08E03033DBB201357B55B44275
:1045D0000ED3202D0CD004003100200000F096F9FD
:1045E000CBB20929EFD90D9A94466344DBB2ECE7CC
:1045F00056465C46AA46129D3FE6099B1A0008CA29
:10460000D91713925A184A409246DA0F1292002B89
:1046100008D1802310220B99DB000B4091430B91B2
:10462000002B2BD10B9A6123920600D541230EAAB1
:104630001F279446DBB20A3B0D9567445D460993FC
:10464000A3465446B2460C9E08E03033DBB2013537
:104650007B55B4420ED3202D0CD004003100200035
:1046600000F054F9CBB20929EFD9099A9446634472
:10467000DBB2ECE756465C46AB460D9D0B9B2A0031
:1046800006930A9B21000593434604930C9B0898CC
:104690000393129B013602935B46019316AB009382
:1046A0004B46FEF71FFE139B05000993FFF727FB00
:1046B00002230C931AE7099B04CB92461293002A1B
:1046C00008D1802310220B99DB000B4091430B9102
:1046D000002B2BD10B9A6123920600D541230EAA01
:1046E0001F279446DBB20A3B0D9567445D4609934C
:1046F000A3465446B2460C9E08E03033DBB2013587
:104700007B55B4420ED3202D0CD004003100200084
:1047100000F0FCF8CBB20929EFD9099A944663441A
:10472000DBB2ECE756465C46AB460D9D0B9B2A0080
:1047300006930A9B21000593434604930C9B08981B
:104740000393002302935B46019316AB00934B4601
:10475000FEF7C8FD129B050009930136FFF7CFFA5B
:10476000B44200D871E6149B54460E960F97AA46A1
:104770009846159E139D8EE6A64200D8FBE6139B35
:1047800056469846AA465C46129D76E508C9D81753
:104790001A1842400991FFF78AFB00230B9350E45B
:1047A000099B04CB9346099359E52F00BBE50B9376
:1047B00001E6063B0C939AE600B585B00391012112
:1047C00002900093034813004A4202A9FFF772FACD
:1047D00005B000BDC13400100FB410B50C4984B051
:1047E00006AA08CA0C680392002C0BD00092012282
:1047F0000848524202A9A047012004B010BC08BCDE
:1048000004B01847180001F06FF90020F5E7C04622
:10481000441C0020B134001010B5094A030014688C
:1048200084B0002C08D0012200910648524203A90E
:10483000A047012004B010BD01F056F90020F9E7AF
:10484000441C0020B134001001480421014B1847DA
:104850003004002079480010142310B50100188896
:1048600004331B88984710BD162310B50100188823
:1048700002331B88984710BDF8B54746CE4680B531
:104880000F1E19D014239946043304000025012675
:1048900098464B461888434621681B88984701C4B0
:1048A000431E9841013540420640AF42F1D13000ED
:1048B000C0BCB946B046F8BD0126F8E7124A936F6E
:1048C0009B0815D29066D166002905D0FFE7FFE767
:1048D000FFE7516F106F704704B580210906C217BA
:1048E0005140002800D0C84306F032FE002104BD2C
:1048F000F0B5146E556E576F166FFFF7E3FF146631
:10490000556657671667F0BD000000D0114A936FD7
:104910009B0813D210665166002905D0FFE7FFE718
:10492000FFE7516F106F704704B5002801D00020D9
:10493000C04306F00DFE002104BDC046F0B5146E64
:10494000556E576F166FFFF7E5FF1466556657678C
:104950001667F0BD000000D094464E4A926F920850
:10496000624601D230E0C046F0B54A4EB56F6D08E0
:10497000FCD3346E756E776F366F00F025F8944671
:10498000444A14665566576716676246F0BDC046CE
:104990009446404A926F9208624601D258E0C0465F
:1049A000F0B53C4EB56F6D08FCD3346E756E776F05
:1049B000366F00F04DF89446364A146655665767D0
:1049C00016676246F0BDC046002B24DB11D00029DB
:1049D0003EDA00B5C943404200D1013100F038F859
:1049E000C943404200D10131DB43524200D101337F
:1049F00000BD002AEBD1002801D1002905D00020FC
:104A0000C90FC90701D1C043410800B506F098FDA0
:104A10000022002300BD00B500290ADBDB4352421F
:104A200000D1013300F014F8C943404200D10131F4
:104A300000BDC943404200D10131DB43524200D1A5
:104A4000013300F005F8DB43524200D1013300BDD1
:104A5000002923D1002B18D1002A0CD0BC460D4FC1
:104A600038667A6600210023FFE7FFE7FFE77A6FE9
:104A7000386F67467047002801D00748010000B52D
:104A800006F05EFD0022002300BD02000B000020A6
:104A900000217047000000D0FFFFFFFF002B00D077
:104AA000BFE0130C28D1002AE7D080B4114F39663B
:104AB0007A66FFE7FFE730B4040C7B6F396F1B04A5
:104AC00023433B667A66FFE7FFE7FFE7C04684B211
:104AD0007B6F3D6F1B0423433B667A66FFE7FFE76E
:104AE000C04600232C042D0C7A6F386F00196941E1
:104AF000B0BC7047000000D0F0B594460025140EFD
:104B000001D112020835140F01D112010435940F9E
:104B100001D192000235D40F01D152000135D40BDE
:104B20000134254F7C66254C3C660E0C93B2FFE7A2
:104B3000FFE7FFE73C6F6643360C7703BE467343DF
:104B4000DF0B5B04C01AB941130C7343DB18C91A9D
:104B5000CE086643360CB64493B273431F0F1B0155
:104B6000C01AB941130C73431F0B1B05C01AB9417E
:104B7000860D8F023E436643360C092D24DB520A14
:104B80007243801A7703460A6643360C16235B1B72
:104B9000DE40DF40BF1964466643821B7046043521
:104BA00006330100D940A840C01900D30131A24208
:104BB00006D20023F0BD0000000000D0FFFFFFFF81
:104BC000121B0130F3D3F1E709277F1BFE40644637
:104BD000A2B27243801A00D20139220C7243130C24
:104BE0001204821A99410B007046043513370100F4
:104BF000F940A840801900D30131002B02D1A24214
:104C00000AD2F0BD013000D30131121BFAD2013BB0
:104C1000F8D1A24200D2F0BD013000D30131121B05
:104C2000F7E7F0B51C0C00D080E00CB400251C0A9E
:104C300004D11B02160E3343120208351C0B04D19B
:104C40001B01160F3343120104359C0B04D19B004A
:104C5000960F334392000235DC0B02D192185B4170
:104C600001351C00971864410134464F7C66464C60
:104C70003C660E0CFFE7FFE7FFE7C0463C6F66436C
:104C8000360C7703BE4697B27743C01B00D201397A
:104C9000C01B00D201399FB27743C91BC91B170C37
:104CA00077437E04FF0B801BB941CE086643360C68
:104CB0000C2D33DBB644120B1F053A431B0B97B286
:104CC0007743C01B00D201399FB27743C91B170C31
:104CD00077433E043F0C801BB941860D8F023E4353
:104CE000664329277F1BFE400C3D7746AF40BF1926
:104CF00030BCA2B2ABB272437343801A9941220C0A
:104D00007243130C1204801A994102000B00013700
:104D1000001BA941F9D2781E0021F0BD0C277F1B92
:104D2000FE4077467F0BAF40FF19E0E700245D1C93
:104D300007D0144F7D663966FFE7FFE7FFE7FFE71F
:104D40003C6F95B29EB265436643401BB141150C62
:104D50001E0C6543664336042F0C3E432D04401B56
:104D6000B141994204D202000B0020000021F0BDA5
:104D700001D19042F7D3801A994101349942F2D37C
:104D8000F6E70000000000D0FFFFFFFF4840414071
:104D9000484018B41B4B5B68FC46019308BD04DF18
:104DA000C350001018B4174B1B68FC46019308BD94
:104DB00000DFCD5000109446134A926F920809D23A
:104DC000624618B40F4BDB68FC46019308BD0CDF4C
:104DD000855300100C4AF0B5146E556E576F166F60
:104DE0006246FFF7EEFF084A146655665767166776
:104DF000F0BD18B4034B9B68FC46019308BD08DF67
:104E000029520010780F0020000000D0FFB550405C
:104E10004240504059404B40594000E0FFB5154FCB
:104E20004C00640D03D0BC4204D10C0314D8002004
:104E3000090D09055C00640D03D0BC4204D11C03BC
:104E40000AD800221B0D1B0501264B4009D44B40FC
:104E500003D58B4200D18242FFBD9942FCD19042E2
:104E6000FFBD0B43DB1803431343F5D0C943491877
:104E7000FFBD0000FF07000000B5FFF7CFFF01D026
:104E8000002000BD012000BD00B5FFF7C7FF804135
:104E900000BDC04600B5FFF7C1FF01D9002000BD2D
:104EA000012000BD00B5FFF7B1FF01D9002000BD12
:104EB000012000BD00B5FFF7A9FF804100BD012022
:104EC00040054A00121804D85A00121801D80020D0
:104ED0007047012070470020704700000021002823
:104EE00005D17047C1174840401AFAD0C90713B519
:104EF000064B1B6898470CBC441CA2401005120BC3
:104F00000349091B09051943114310BD681C002002
:104F10001F04000010B54C00620D8023D218DB0086
:104F2000D21A5B057E2A10DD9E3A13DACC170903EC
:104F3000490819435242D140640001341532202AF5
:104F400005DAD0400843604310BD002010BD08467C
:104F5000604310BDC80FC018013810BD18B4044B11
:104F60005B6AFC46019308BD24DF35550010000044
:104F7000780F002018B4044BDB6DFC46019308BD8C
:104F80005CDF415600100000780F0020C94211D3A9
:104F900000B549004908002200F018F8002904D49F
:104FA000002240428A41114600BD802109060020AE
:104FB00000BD000018B4044BDB6EFC46019308BD35
:104FC0006CDF435500100000780F002018B4044B2C
:104FD0009B6FFC46019308BD78DF5F550010000011
:104FE000780F002018B4044BDB6FFC46019308BD1A
:104FF0007CDFCD5500100000780F0020132370B522
:105000001D78012D15D010DD1C48FFF72DFC1C4C20
:1050100001008022200000F0FFFB022D06D019487D
:10502000FFF71AFC184B186070BD154C174BA364A2
:10503000F5E7164B124C23606360A360E3602361C5
:105040006361A361E36123626362A362E36223633A
:105050006363A363E36323646364A364E36423651A
:105060006365A365E36523666366A366E3662367FA
:105070006367A367E367A364D1E7C04653440000B6
:10508000780F00204C330000681C00209150001065
:1050900007B5604601880A0A0230DF2AFAD1C9B290
:1050A000820804D3028840880004104300E00068AE
:1050B000014A5050039007BD780F00200FB403BC85
:1050C0000CBCF0B50124E407634000E0F0B50C0D22
:1050D000CF0F661E3605891B640503D3C9434042C2
:1050E00000D30131640D03D0661CF60A07D0E41B1F
:1050F00000207F00791C89078912803C24031D0D44
:10510000DF0F6E1E36059B1B6D0503D3DB4352423A
:1051100000D301336D0D03D06E1CF60A07D0ED1BD2
:1051200000227F007B1C9B079B12803D2D032F1BC1
:10513000661B58D4A446202E46DA20371400BC4003
:105140001D00BD40F24033412A4380185941CB0F26
:1051500005D0C943C04300226442504151416246D8
:105160004D0D28D10D0D07D100281FD02419404125
:105170004941013A0D0DF9D0640006D3013000D346
:105180000131002C01D140084000013A0BD4941C9D
:10519000E40A04D112051144DB071944F0BDD90714
:1051A000204B194300E0D9070020F0BD0029DDD1D4
:1051B000002CDBD1F0BD0132C6074008CD072843E3
:1051C0004908002EE1D0D9E73C2E29DA203E4037AD
:1051D0001400BC4000D00124F24014431A00BB402C
:1051E0001C43D317ACE7AC46202F08DA2036040066
:1051F000B4400D00B540F84039412843A5E73C2FA5
:105200000CDA203F40360400B44000D00124F840BE
:1052100004430800B1400C43C117EAE7100019002D
:10522000002494E70000F07FF0B50C0D661E3605F3
:10523000891BE60A6405640D02D0651CED0A04D0E2
:10524000002001210905803C2403A4461C0D671E93
:105250003F05DB1BE70A6405640D02D0651CED0AFF
:1052600004D0002201231B05803C240377406444C2
:1052700097B484B296B27443070C7E43150C6F4307
:1052800080B26843361802D3012000043F1830046E
:10529000350C00197D41844688B29AB250430C0CFB
:1052A00062431F0C7C438EB27E43921902D30126C7
:1052B0003604A4191604170C3618674101BC81B2D4
:1052C0009AB25143040C62431B0C5C4380B25843B6
:1052D000121802D30120000424181004130C4018E3
:1052E00063412D185E410020474106BC88B293B24D
:1052F00058430C0C6343120C544389B251435B185E
:1053000002D301210904641819041A0C0918624116
:105310006D1856410020474118BCF902720D114327
:10532000F0026A0D1043ED020A0D03D16D194041E0
:105330004941013B124E9B1B7600B3420ED26D00D9
:1053400007D30130002671416646354301D140083C
:1053500040001B05C918E4072144F0BD0BDA0133F6
:1053600006D1013004D101314F0D01D04908F2E7D7
:10537000E1070020F0BD013631050020EBE7000019
:10538000FF030000F0B51C0D671E3F05DB1BE70A9D
:105390006405640D02D0661CF60A04D000220123C5
:1053A0001B05803C2403D0252D060026F6432E66DF
:1053B0001E096E66CE0FF619B44649004F0D02D095
:1053C0007E1CF60A03D000200021403F3F033E1B15
:1053D000B600B444013F7F05C91B49082E6F013652
:1053E00076089C02950D25437543ED137543AD1367
:1053F00001356D10F603761B0CB4CC02450D2C4321
:10540000A2B2B3B25A43270C7B43350C6F43A4B20C
:105410006C431B1902D3012424043F191C041D0CE6
:10542000A4187D4124196D41009A91B2ACB2614338
:10543000170C7C432B0C5F4392B25A43A41802D33F
:1054400001221204BF182204230C52187B41019C34
:105450006C431B19520ED9010A434401A01A81B2B0
:10546000B2B2514303145A43360C734387B27743A5
:10547000D617D21900277E4136049B191704160C43
:105480007F185E417316ED18F301002680337541D5
:10549000A90F06D16400690AE8055B0A184309D21E
:1054A0002FE00422944480337541A90AA8059B0A81
:1054B000184326D3404149412404009A019B0D0022
:1054C0005543641B4343E41A95B286B27543170CE7
:1054D0007E43030C5F4392B25A43B61802D30122B3
:1054E0001204BF183204330C52197B4152429C41C2
:1054F000002C02D40022013051414008CA07104359
:10550000490802B06246D7079210084BD218084BE0
:105510009A4203D212058918C919F0BD0020002A49
:1055200001DC3900F0BD01331905F5E7FD0300008A
:10553000FE070000002200B5203200F010F808003D
:1055400000BD002200B500F00CF8CA179A4200D145
:1055500000BDD8430121C907414000BD00220B1501
:105560000AD410B5944600F0A7F81414013400DAF8
:105570000021CB17144C20470020002170476244C3
:10558000343A0CD40C2A07DA04009140904052427D
:105590002032D440214310BDD843D94310BD20321E
:1055A00007D40C469440524220321141D04020434F
:1055B00010BD0800C917203203D4524220321041D6
:1055C00010BD1800190010BD7F5500104A00520D83
:1055D000144BD21A13DDFF2A1EDAD205CB0FDB07DC
:1055E0001A43C300400F0903490A084310435B00F4
:1055F00001D301D0013070474308FBD2704702D07D
:10560000C80FC00770470A0312130132F8D1420FC6
:10561000072AF5D1012200E0FF22C80F00028018FE
:10562000C00570478003000000210A00002104E04B
:1056300000210A00C11704E00022002306E0C04652
:105640000022CB1758405940C01A994130B5184C28
:10565000A21A002903D1010010D00020203A4C15D5
:1056600012D104D2013A001849414C0DFAD3114C21
:10567000A24204D212058918DB07C91830BDD243F3
:10568000520D00200021F5E703D4013A00184941EA
:10569000FBD50B324405C00A4D052843C90A6400F6
:1056A00003D0002460416141E1E7E0D34408F8E71A
:1056B00032040000FE0700000A0DCC0F531E1B052C
:1056C000C91A520503D3C943404200D30131520DD8
:1056D00003D0531CDB0A07D0121B00206400611C9E
:1056E00089078912803A1203014BD21A70470000D1
:1056F000FF03000051434343C9188C46110C83B289
:105700004B4310B4040C614392B280B250436243E5
:105710001C041B0C001910BC59411304120CC018B6
:105720005141614470470000034BDB6FFC46184752
:105730007CDFCD570010000078100020132310B537
:1057400012481C78FFF790F80100012C0AD003DD05
:1057500080220F4800F060F80E48FFF77DF80E4BEE
:10576000186010BD0A4C5422200000F055F80B4B75
:105770006365A365E36523666366A366E3662367E3
:105780006367A367E3672362E361E5E753460000CD
:10579000781000204C330000681C0020A157001036
:1057A00007B5604601880A0A0230DF2AFAD1C9B279
:1057B000820804D3028840880004104300E0006897
:1057C000014A5050039007BD78100020C30FDB073B
:1057D00041000A0E07D0FF2A08D00909054A891896
:1057E0001943400770471900002070470249C91843
:1057F000FAE70000000000380000F07F01480421B3
:10580000014B18474004002079480010014B1B68E9
:105810001847000040040020014B5B681847000057
:1058200040040020030010B5080011001B689847D1
:1058300010BDC046F0B546464F46D646C0B5437C7F
:1058400080460E001700002B46D0002A3FDD4B1E7D
:105850009946244B0125002400209A460DE04B4632
:105860001B5D0D3B5A425341325DDBB20A2A0BD01D
:105870002B00013401359F421ADD002CEFD1434645
:10588000325D1B7C0A2AF3D1002BF1D1A04204DA4D
:105890004346211A1B6830189847434650461B68F8
:1058A00002219847013428002B0001359F42E4DC97
:1058B000874204DD4346391A1B6830189847F619A9
:1058C000013E33780D3B5A42534142461374E0BCCB
:1058D000BA46B146A846F0BD0368110030009847AB
:1058E000F5E7C046B4BA0010F0B5C6460C0009682A
:1058F000060000B5802906D04B1C23606418267171
:1059000080BCB846F0BD0F4B1D68002D16D0231D7E
:1059100098460D4F02E0ED68002D0FD02B68002B4C
:10592000F9D03B68002B01D0AB42F4D128004146AE
:105930002268FFF77FFFED68002DEFD101230021E2
:10594000DBE7C0463018002038180020F0B5574675
:105950004E464546DE461C00D023E0B51B061F68B8
:10596000344B83B006000D00180001A991469A46F9
:1059700005F0F6FD8046002808D1019B7FB29F42CA
:1059800004D0504605F0FCFD012398466B1C03D162
:10599000300003F097FA0500002C27D1264F274B43
:1059A0001C68002C18D04B46002B21D1244B994663
:1059B00002E0E468002C0FD02368002BF9D04B469E
:1059C0001B68002B01D0A342F3D120002A00310034
:1059D000B847E468002CEFD14346002B25D103B033
:1059E000F0BCBB46B246A946A046F0BD154FD6E76F
:1059F000134B99460A239B4602E0E468002CEBD047
:105A00002368002BF9D04B461B68002B01D0A34222
:105A1000F3D12A0031002000B8475A466B462000D7
:105A20001A7101A90122B847E7E7504605F080FD49
:105A3000D5E7C046500E0020355800103018002021
:105A40003818002025580010F0B5CE46474680B5DE
:105A500083B06B46DE1CD02330701B061C681F4BC6
:105A6000804601A91800994605F07AFD071E20D04E
:105A70001B4B1C68002C28D01A4D02E0E468002C57
:105A80000FD02368002BF9D02B68002B01D0A34244
:105A9000F4D1200001223100FFF7CCFEE468002C95
:105AA000EFD1002F11D1404603B0C0BCB946B0467B
:105AB000F0BD019B64B29C420BD0484605F060FDEE
:105AC000074B01271C68002CD6D1484605F030FD55
:105AD000E9E7034B1C68002CCED1E4E7500E002010
